{
  "_format": "hh-sol-artifact-1",
  "contractName": "WattTrader",
  "sourceName": "contracts/WattTrader.sol",
  "abi": [
    {
      "inputs": [
        {
          "internalType": "address",
          "name": "_energyToken",
          "type": "address"
        },
        {
          "internalType": "address",
          "name": "_meteringOracle",
          "type": "address"
        }
      ],
      "stateMutability": "nonpayable",
      "type": "constructor"
    },
    {
      "anonymous": false,
      "inputs": [
        {
          "indexed": true,
          "internalType": "address",
          "name": "producer",
          "type": "address"
        },
        {
          "indexed": true,
          "internalType": "uint256",
          "name": "listingId",
          "type": "uint256"
        },
        {
          "indexed": false,
          "internalType": "uint256",
          "name": "amount",
          "type": "uint256"
        },
        {
          "indexed": false,
          "internalType": "uint256",
          "name": "price",
          "type": "uint256"
        }
      ],
      "name": "EnergyListed",
      "type": "event"
    },
    {
      "anonymous": false,
      "inputs": [
        {
          "indexed": true,
          "internalType": "address",
          "name": "buyer",
          "type": "address"
        },
        {
          "indexed": true,
          "internalType": "address",
          "name": "seller",
          "type": "address"
        },
        {
          "indexed": true,
          "internalType": "uint256",
          "name": "listingId",
          "type": "uint256"
        },
        {
          "indexed": false,
          "internalType": "uint256",
          "name": "amount",
          "type": "uint256"
        },
        {
          "indexed": false,
          "internalType": "uint256",
          "name": "price",
          "type": "uint256"
        }
      ],
      "name": "EnergyPurchased",
      "type": "event"
    },
    {
      "inputs": [
        {
          "internalType": "address",
          "name": "",
          "type": "address"
        }
      ],
      "name": "energyConsumed",
      "outputs": [
        {
          "internalType": "uint256",
          "name": "",
          "type": "uint256"
        }
      ],
      "stateMutability": "view",
      "type": "function"
    },
    {
      "inputs": [
        {
          "internalType": "uint256",
          "name": "",
          "type": "uint256"
        }
      ],
      "name": "energyListings",
      "outputs": [
        {
          "internalType": "address",
          "name": "producer",
          "type": "address"
        },
        {
          "internalType": "uint256",
          "name": "amount",
          "type": "uint256"
        },
        {
          "internalType": "uint256",
          "name": "price",
          "type": "uint256"
        },
        {
          "internalType": "bool",
          "name": "isActive",
          "type": "bool"
        },
        {
          "internalType": "uint256",
          "name": "listingId",
          "type": "uint256"
        }
      ],
      "stateMutability": "view",
      "type": "function"
    },
    {
      "inputs": [
        {
          "internalType": "address",
          "name": "",
          "type": "address"
        }
      ],
      "name": "energyProduced",
      "outputs": [
        {
          "internalType": "uint256",
          "name": "",
          "type": "uint256"
        }
      ],
      "stateMutability": "view",
      "type": "function"
    },
    {
      "inputs": [
        {
          "internalType": "address",
          "name": "",
          "type": "address"
        }
      ],
      "name": "energyPurchased",
      "outputs": [
        {
          "internalType": "uint256",
          "name": "",
          "type": "uint256"
        }
      ],
      "stateMutability": "view",
      "type": "function"
    },
    {
      "inputs": [],
      "name": "energyToken",
      "outputs": [
        {
          "internalType": "contract WattEnergyToken",
          "name": "",
          "type": "address"
        }
      ],
      "stateMutability": "view",
      "type": "function"
    },
    {
      "inputs": [],
      "name": "getEnergyListings",
      "outputs": [
        {
          "components": [
            {
              "internalType": "address",
              "name": "producer",
              "type": "address"
            },
            {
              "internalType": "uint256",
              "name": "amount",
              "type": "uint256"
            },
            {
              "internalType": "uint256",
              "name": "price",
              "type": "uint256"
            },
            {
              "internalType": "bool",
              "name": "isActive",
              "type": "bool"
            },
            {
              "internalType": "uint256",
              "name": "listingId",
              "type": "uint256"
            }
          ],
          "internalType": "struct WattTrader.EnergyListing[]",
          "name": "",
          "type": "tuple[]"
        }
      ],
      "stateMutability": "view",
      "type": "function"
    },
    {
      "inputs": [
        {
          "internalType": "address",
          "name": "consumer",
          "type": "address"
        }
      ],
      "name": "getEnergyOverview",
      "outputs": [
        {
          "components": [
            {
              "internalType": "uint256",
              "name": "energyBalance",
              "type": "uint256"
            },
            {
              "internalType": "uint256",
              "name": "energyProduced",
              "type": "uint256"
            },
            {
              "internalType": "uint256",
              "name": "energyPurchased",
              "type": "uint256"
            },
            {
              "internalType": "uint256",
              "name": "energyConsumed",
              "type": "uint256"
            }
          ],
          "internalType": "struct WattTrader.ConsumerEnergyOverview",
          "name": "",
          "type": "tuple"
        }
      ],
      "stateMutability": "view",
      "type": "function"
    },
    {
      "inputs": [
        {
          "internalType": "uint256",
          "name": "_amount",
          "type": "uint256"
        },
        {
          "internalType": "uint256",
          "name": "_price",
          "type": "uint256"
        }
      ],
      "name": "listEnergy",
      "outputs": [],
      "stateMutability": "nonpayable",
      "type": "function"
    },
    {
      "inputs": [],
      "name": "nextListingId",
      "outputs": [
        {
          "internalType": "uint256",
          "name": "",
          "type": "uint256"
        }
      ],
      "stateMutability": "view",
      "type": "function"
    },
    {
      "inputs": [
        {
          "internalType": "uint256",
          "name": "_listingId",
          "type": "uint256"
        }
      ],
      "name": "purchaseEnergy",
      "outputs": [],
      "stateMutability": "payable",
      "type": "function"
    },
    {
      "inputs": [
        {
          "internalType": "address",
          "name": "consumer",
          "type": "address"
        },
        {
          "internalType": "uint256",
          "name": "consumption",
          "type": "uint256"
        }
      ],
      "name": "reportEnergyConsumption",
      "outputs": [],
      "stateMutability": "nonpayable",
      "type": "function"
    }
  ],
  "bytecode": "0x60a06040523480156200001157600080fd5b50604051620018c2380380620018c283398181016040528101906200003791906200011d565b8173ffffffffffffffffffffffffffffffffffffffff1660808173ffffffffffffffffffffffffffffffffffffffff1681525050806000806101000a81548173ffffffffffffffffffffffffffffffffffffffff021916908373ffffffffffffffffffffffffffffffffffffffff160217905550505062000164565b600080fd5b600073ffffffffffffffffffffffffffffffffffffffff82169050919050565b6000620000e582620000b8565b9050919050565b620000f781620000d8565b81146200010357600080fd5b50565b6000815190506200011781620000ec565b92915050565b60008060408385031215620001375762000136620000b3565b5b6000620001478582860162000106565b92505060206200015a8582860162000106565b9150509250929050565b60805161171f620001a3600039600081816102f7015281816104e6015281816106c70152818161099301528181610b800152610d06015261171f6000f3fe60806040526004361061009c5760003560e01c80636afe2520116100645780636afe2520146101c45780636b106219146101e057806390d098291461021d578063aaccf1ec14610248578063c8a9fb5e14610273578063ffb2b3b61461029c5761009c565b80634369c536146100a15780634c0b7345146100de5780634ec7fb811461011b57806358fa56001461014657806365e111f814610183575b600080fd5b3480156100ad57600080fd5b506100c860048036038101906100c39190610e76565b6102c5565b6040516100d59190610ebc565b60405180910390f35b3480156100ea57600080fd5b5061010560048036038101906101009190610e76565b6102dd565b6040516101129190610ebc565b60405180910390f35b34801561012757600080fd5b506101306102f5565b60405161013d9190610f36565b60405180910390f35b34801561015257600080fd5b5061016d60048036038101906101689190610e76565b610319565b60405161017a9190610ebc565b60405180910390f35b34801561018f57600080fd5b506101aa60048036038101906101a59190610f7d565b610331565b6040516101bb959493929190610fd4565b60405180910390f35b6101de60048036038101906101d99190610f7d565b6103a4565b005b3480156101ec57600080fd5b5061020760048036038101906102029190610e76565b6106bb565b604051610214919061108b565b60405180910390f35b34801561022957600080fd5b50610232610859565b60405161023f91906111db565b60405180910390f35b34801561025457600080fd5b5061025d610947565b60405161026a9190610ebc565b60405180910390f35b34801561027f57600080fd5b5061029a600480360381019061029591906111fd565b61094d565b005b3480156102a857600080fd5b506102c360048036038101906102be919061123d565b610c76565b005b60036020528060005260406000206000915090505481565b60046020528060005260406000206000915090505481565b7f000000000000000000000000000000000000000000000000000000000000000081565b60026020528060005260406000206000915090505481565b6001818154811061034157600080fd5b90600052602060002090600502016000915090508060000160009054906101000a900473ffffffffffffffffffffffffffffffffffffffff16908060010154908060020154908060030160009054906101000a900460ff16908060040154905085565b6000600182815481106103ba576103b961127d565b5b906000526020600020906005020190508060030160009054906101000a900460ff1661041b576040517f08c379a000000000000000000000000000000000000000000000000000000000815260040161041290611309565b60405180910390fd5b8060020154341015610462576040517f08c379a000000000000000000000000000000000000000000000000000000000815260040161045990611375565b60405180910390fd5b60008160020154905060008260010154905060008360000160009054906101000a900473ffffffffffffffffffffffffffffffffffffffff1690508073ffffffffffffffffffffffffffffffffffffffff166108fc849081150290604051600060405180830381858888f193505050501580156104e3573d6000803e3d6000fd5b507f000000000000000000000000000000000000000000000000000000000000000073ffffffffffffffffffffffffffffffffffffffff1663a9059cbb33846040518363ffffffff1660e01b815260040161053f929190611395565b6020604051808303816000875af115801561055e573d6000803e3d6000fd5b505050506040513d601f19601f8201168201806040525081019061058291906113ea565b5081600260008373ffffffffffffffffffffffffffffffffffffffff1673ffffffffffffffffffffffffffffffffffffffff16815260200190815260200160002060008282546105d29190611446565b9250508190555081600360003373ffffffffffffffffffffffffffffffffffffffff1673ffffffffffffffffffffffffffffffffffffffff16815260200190815260200160002060008282546106289190611446565b9250508190555060008460030160006101000a81548160ff021916908315150217905550848173ffffffffffffffffffffffffffffffffffffffff163373ffffffffffffffffffffffffffffffffffffffff167f77b860e7bfd31f3b4f8aaf17ba74e4ea6ecf3f47baffe3b20cc2632efd5606d185876040516106ac92919061147a565b60405180910390a45050505050565b6106c3610deb565b60007f000000000000000000000000000000000000000000000000000000000000000073ffffffffffffffffffffffffffffffffffffffff166370a08231846040518263ffffffff1660e01b815260040161071e91906114a3565b602060405180830381865afa15801561073b573d6000803e3d6000fd5b505050506040513d601f19601f8201168201806040525081019061075f91906114d3565b90506000600260008573ffffffffffffffffffffffffffffffffffffffff1673ffffffffffffffffffffffffffffffffffffffff1681526020019081526020016000205490506000600360008673ffffffffffffffffffffffffffffffffffffffff1673ffffffffffffffffffffffffffffffffffffffff1681526020019081526020016000205490506000600460008773ffffffffffffffffffffffffffffffffffffffff1673ffffffffffffffffffffffffffffffffffffffff168152602001908152602001600020549050604051806080016040528085815260200184815260200183815260200182815250945050505050919050565b60606001805480602002602001604051908101604052809291908181526020016000905b8282101561093e57838290600052602060002090600502016040518060a00160405290816000820160009054906101000a900473ffffffffffffffffffffffffffffffffffffffff1673ffffffffffffffffffffffffffffffffffffffff1673ffffffffffffffffffffffffffffffffffffffff16815260200160018201548152602001600282015481526020016003820160009054906101000a900460ff161515151581526020016004820154815250508152602001906001019061087d565b50505050905090565b60055481565b60008211610990576040517f08c379a00000000000000000000000000000000000000000000000000000000081526004016109879061154c565b60405180910390fd5b817f000000000000000000000000000000000000000000000000000000000000000073ffffffffffffffffffffffffffffffffffffffff166370a08231336040518263ffffffff1660e01b81526004016109ea91906114a3565b602060405180830381865afa158015610a07573d6000803e3d6000fd5b505050506040513d601f19601f82011682018060405250810190610a2b91906114d3565b1015610a6c576040517f08c379a0000000000000000000000000000000000000000000000000000000008152600401610a63906115b8565b60405180910390fd5b600060056000815480929190610a81906115d8565b91905055905060006040518060a001604052803373ffffffffffffffffffffffffffffffffffffffff168152602001858152602001848152602001600115158152602001838152509050600181908060018154018082558091505060019003906000526020600020906005020160009091909190915060008201518160000160006101000a81548173ffffffffffffffffffffffffffffffffffffffff021916908373ffffffffffffffffffffffffffffffffffffffff160217905550602082015181600101556040820151816002015560608201518160030160006101000a81548160ff0219169083151502179055506080820151816004015550507f000000000000000000000000000000000000000000000000000000000000000073ffffffffffffffffffffffffffffffffffffffff166323b872dd3330876040518463ffffffff1660e01b8152600401610bdb93929190611620565b6020604051808303816000875af1158015610bfa573d6000803e3d6000fd5b505050506040513d601f19601f82011682018060405250810190610c1e91906113ea565b50813373ffffffffffffffffffffffffffffffffffffffff167fe6c715fade596e1c5814a1c0bd874af8437969c9aebac242623e4b8ef3ec35118686604051610c6892919061147a565b60405180910390a350505050565b60008054906101000a900473ffffffffffffffffffffffffffffffffffffffff1673ffffffffffffffffffffffffffffffffffffffff163373ffffffffffffffffffffffffffffffffffffffff1614610d04576040517f08c379a0000000000000000000000000000000000000000000000000000000008152600401610cfb906116c9565b60405180910390fd5b7f000000000000000000000000000000000000000000000000000000000000000073ffffffffffffffffffffffffffffffffffffffff16639dc29fac83836040518363ffffffff1660e01b8152600401610d5f929190611395565b600060405180830381600087803b158015610d7957600080fd5b505af1158015610d8d573d6000803e3d6000fd5b5050505080600460008473ffffffffffffffffffffffffffffffffffffffff1673ffffffffffffffffffffffffffffffffffffffff1681526020019081526020016000206000828254610de09190611446565b925050819055505050565b6040518060800160405280600081526020016000815260200160008152602001600081525090565b600080fd5b600073ffffffffffffffffffffffffffffffffffffffff82169050919050565b6000610e4382610e18565b9050919050565b610e5381610e38565b8114610e5e57600080fd5b50565b600081359050610e7081610e4a565b92915050565b600060208284031215610e8c57610e8b610e13565b5b6000610e9a84828501610e61565b91505092915050565b6000819050919050565b610eb681610ea3565b82525050565b6000602082019050610ed16000830184610ead565b92915050565b6000819050919050565b6000610efc610ef7610ef284610e18565b610ed7565b610e18565b9050919050565b6000610f0e82610ee1565b9050919050565b6000610f2082610f03565b9050919050565b610f3081610f15565b82525050565b6000602082019050610f4b6000830184610f27565b92915050565b610f5a81610ea3565b8114610f6557600080fd5b50565b600081359050610f7781610f51565b92915050565b600060208284031215610f9357610f92610e13565b5b6000610fa184828501610f68565b91505092915050565b610fb381610e38565b82525050565b60008115159050919050565b610fce81610fb9565b82525050565b600060a082019050610fe96000830188610faa565b610ff66020830187610ead565b6110036040830186610ead565b6110106060830185610fc5565b61101d6080830184610ead565b9695505050505050565b61103081610ea3565b82525050565b60808201600082015161104c6000850182611027565b50602082015161105f6020850182611027565b5060408201516110726040850182611027565b5060608201516110856060850182611027565b50505050565b60006080820190506110a06000830184611036565b92915050565b600081519050919050565b600082825260208201905092915050565b6000819050602082019050919050565b6110db81610e38565b82525050565b6110ea81610fb9565b82525050565b60a08201600082015161110660008501826110d2565b5060208201516111196020850182611027565b50604082015161112c6040850182611027565b50606082015161113f60608501826110e1565b5060808201516111526080850182611027565b50505050565b600061116483836110f0565b60a08301905092915050565b6000602082019050919050565b6000611188826110a6565b61119281856110b1565b935061119d836110c2565b8060005b838110156111ce5781516111b58882611158565b97506111c083611170565b9250506001810190506111a1565b5085935050505092915050565b600060208201905081810360008301526111f5818461117d565b905092915050565b6000806040838503121561121457611213610e13565b5b600061122285828601610f68565b925050602061123385828601610f68565b9150509250929050565b6000806040838503121561125457611253610e13565b5b600061126285828601610e61565b925050602061127385828601610f68565b9150509250929050565b7f4e487b7100000000000000000000000000000000000000000000000000000000600052603260045260246000fd5b600082825260208201905092915050565b7f456e65726779206c697374696e67206973206e6f742061637469766500000000600082015250565b60006112f3601c836112ac565b91506112fe826112bd565b602082019050919050565b60006020820190508181036000830152611322816112e6565b9050919050565b7f496e73756666696369656e74207061796d656e74000000000000000000000000600082015250565b600061135f6014836112ac565b915061136a82611329565b602082019050919050565b6000602082019050818103600083015261138e81611352565b9050919050565b60006040820190506113aa6000830185610faa565b6113b76020830184610ead565b9392505050565b6113c781610fb9565b81146113d257600080fd5b50565b6000815190506113e4816113be565b92915050565b600060208284031215611400576113ff610e13565b5b600061140e848285016113d5565b91505092915050565b7f4e487b7100000000000000000000000000000000000000000000000000000000600052601160045260246000fd5b600061145182610ea3565b915061145c83610ea3565b925082820190508082111561147457611473611417565b5b92915050565b600060408201905061148f6000830185610ead565b61149c6020830184610ead565b9392505050565b60006020820190506114b86000830184610faa565b92915050565b6000815190506114cd81610f51565b92915050565b6000602082840312156114e9576114e8610e13565b5b60006114f7848285016114be565b91505092915050565b7f416d6f756e74206d7573742062652067726561746572207468616e207a65726f600082015250565b60006115366020836112ac565b915061154182611500565b602082019050919050565b6000602082019050818103600083015261156581611529565b9050919050565b7f496e73756666696369656e7420656e657267792062616c616e63650000000000600082015250565b60006115a2601b836112ac565b91506115ad8261156c565b602082019050919050565b600060208201905081810360008301526115d181611595565b9050919050565b60006115e382610ea3565b91507fffffffffffffffffffffffffffffffffffffffffffffffffffffffffffffffff820361161557611614611417565b5b600182019050919050565b60006060820190506116356000830186610faa565b6116426020830185610faa565b61164f6040830184610ead565b949350505050565b7f4f6e6c7920617574686f72697a6564206f7261636c65207265706f727420636f60008201527f6e73756d7074696f6e0000000000000000000000000000000000000000000000602082015250565b60006116b36029836112ac565b91506116be82611657565b604082019050919050565b600060208201905081810360008301526116e2816116a6565b905091905056fea2646970667358221220da7932a10fa27b35da28acde7ca9844d18e92ed90676af88e99a9b381d87aede64736f6c63430008180033",
  "linkReferences": {},
  "deployedLinkReferences": {}
}